:100000000C9462000C948A000C948A000C943105C4
:100010000C9431050C9431050C948A000C948A00E0
:100020000C948A000C948A000C948A000C948A0028
:100030000C948A000C948A000C948A000C948A0018
:100040000C94E7040C948A000C94B5040C948F046F
:100050000C948A000C948A000C948A000C948A00F8
:100060000C948A000C948A000000000024002700F1
:100070002A0000000008000201000003040700003D
:1000800000000000000000000000250028002B00F8
:1000900000000000230026002900040404040404D6
:1000A0000404020202020202030303030303010227
:1000B00004081020408001020408102001020408F6
:1000C0001020AB0511241FBECFEFD8E0DEBFCDBF9F
:1000D00011E0A0E0B1E0ECE5FEE102C005900D9278
:1000E000A033B107D9F723E0A0E3B1E001C01D922E
:1000F000AD3BB207E1F710E0C2E6D0E004C02197C3
:10010000FE010E94F40DC136D107C9F70E9406070F
:100110000C942C0F0C940000CF92DF92EF92FF9280
:100120000F931F93CF93DF936C017A018B01C0E093
:10013000D0E0CE15DF0589F0D8016D918D01D60193
:10014000ED91FC910190F081E02DC6010995892B7C
:1001500011F47E0102C02196ECCFC701DF91CF914F
:100160001F910F91FF90EF90DF90CF900895FC01C9
:10017000538D448D252F30E0842F90E0821B930B0C
:10018000541710F0CF96089501970895FC01918DB2
:10019000828D981761F0828DDF01A80FB11D5D96E9
:1001A0008C91928D9F5F9F73928F90E008958FEF57
:1001B0009FEF0895FC01918D828D981731F0828D0B
:1001C000E80FF11D858D90E008958FEF9FEF089562
:1001D000FC01918D228D892F90E0805C9F4F821BC6
:1001E00091098F73992708958BEB92E00E94E800A4
:1001F00021E0892B09F420E0822F0895FC01848DF1
:10020000DF01A80FB11DA35ABF4F2C91848D90E040
:1002100001968F739927848FA689B7892C93A0891B
:10022000B1898C9180648C93938D848D981306C0D2
:100230000288F389E02D80818F7D80830895EF927D
:10024000FF920F931F93CF93DF93EC0181E0888F90
:100250009B8D8C8D981305C0E889F989808185FD77
:1002600024C0F62E0B8D10E00F5F1F4F0F73112768
:10027000E02E8C8DE8120CC00FB607FCFACFE8898F
:10028000F989808185FFF5CFCE010E94FE00F1CF74
:100290008B8DFE01E80FF11DE35AFF4FF0820B8FAB
:1002A000EA89FB898081806207C0EE89FF896083CB
:1002B000E889F98980818064808381E090E0DF9122
:1002C000CF911F910F91FF90EF900895CF93DF93FF
:1002D000EC01888D8823C9F0EA89FB89808185FD3E
:1002E00005C0A889B9898C9186FD0FC00FB607FC9F
:1002F000F5CF808185FFF2CFA889B9898C9185FFE0
:10030000EDCFCE010E94FE00E7CFDF91CF9108959F
:1003100080E090E0892B29F00E94F40081110C9478
:100320000000089590E0FC01EE58FF4F3491FC016D
:10033000E255FF4F2491FC01E656FF4FE491EE2376
:1003400009F43BC0332339F1333091F038F43130C4
:10035000A9F0323001F584B58F7D12C0373091F0AD
:100360003830A1F03430B9F4809180008F7D03C023
:10037000809180008F77809380000DC084B58F7747
:1003800084BD09C08091B0008F7703C08091B00018
:100390008F7D8093B000F0E0EE0FFF1FEA57FF4F14
:1003A000A591B4918FB7F894EC91611103C0209599
:1003B0002E2301C02E2B2C938FBF0895CF93DF9354
:1003C00090E0FC01E255FF4F2491FC01E656FF4FFF
:1003D0008491882361F190E0880F991FFC01E8590E
:1003E000FF4FC591D491FC01EA57FF4FA591B491FD
:1003F000611109C09FB7F894888120958223888372
:10040000EC912E230BC0623061F49FB7F8943881D1
:10041000822F809583238883EC912E2B2C939FBF72
:1004200006C08FB7F894E8812E2B28838FBFDF9109
:10043000CF9108953FB7F8948091790190917A0116
:10044000A0917B01B0917C0126B5A89B05C02F3FF0
:1004500019F00196A11DB11D3FBFBA2FA92F982FEA
:100460008827820F911DA11DB11DBC01CD0142E065
:10047000660F771F881F991F4A95D1F7089520911D
:100480007201309173012817390771F4909171014D
:1004900080917001981741F0E0917101F0E0E05D0A
:1004A000FE4F808190E008958FEF9FEF08950895AB
:1004B0001F93CF93DF93DC015C962D913C915D9768
:1004C0002115310539F481E090E013969C938E93C9
:1004D00012973DC05196ED91FC91529750969C9188
:1004E0005097892F80951FB75E964C915E9741FB80
:1004F000772770F941FD6095F8944081772311F0DA
:10050000492B01C048234083E9012197F1F748E0D6
:10051000508160FF02C0592B01C058235083E9016C
:100520002197F1F76695415099F7772321F0908153
:100530008923808303C08081982B90831FBF5C96A2
:100540008D919C915D970197F1F721E030E0C90111
:10055000DF91CF911F910895209172013091730125
:100560002817390771F4809170012091710190E092
:10057000805C9F4F821B910960E470E00E94CC0D6B
:10058000089580E090E00895209172013091730108
:1005900028173907B9F4909171018091700198176B
:1005A00089F0E0917101F0E0E05DFE4F80812091E3
:1005B000710130E02F5F3F4F2F733327209371017C
:1005C00090E008958FEF9FEF0895E0917201F09110
:1005D0007301E817F90769F4A389B4899C918589A7
:1005E000809589238C93109273011092720181E09F
:1005F000089580E00895CF93DF93EC018A8D9B8D61
:10060000892BF1F080917201909173018C179D07F5
:10061000B9F0009711F00E94E5028E8D8E7F8E8FCB
:100620001092700110927101D0937301C093720106
:10063000EB89FC8990818D89892B808381E001C0C1
:1006400080E0DF91CF910895BF92CF92DF92EF9239
:10065000FF920F931F93CF93DF93CDB7DEB72E9703
:100660000FB6F894DEBF0FBECDBF49875A876B87A0
:100670007C878D879E87B22E182F092F809190033B
:10068000909191030097B1F439852A859B858C85DB
:10069000B9821A830B833C832D839E838F83CE0183
:1006A00001967C019E01285F3F4FFC0180E090E0B5
:1006B000DC0119C00E94E50261E0809196030E946E
:1006C000DE010E941A026B017C010E941A02AB013A
:1006D000BC014C195D096E097F09483E5340610514
:1006E000710590F6F2CF4191840F911DA11DB11DAE
:1006F000E217F307C1F78115E7E09E07A105B105F1
:1007000024F00796A11DB11D3BC08115F6E09F079F
:10071000A105B10524F00696A11DB11D31C08115BA
:1007200025E09207A105B10524F00596A11DB11D94
:1007300027C08115E4E09E07A105B10524F00496C9
:10074000A11DB11D1DC08115F3E09F07A105B105D5
:1007500024F00396A11DB11D13C0811522E092075C
:10076000A105B10524F00296A11DB11D09C08F3F5E
:100770009105A105B10521F01CF00196A11DB11D47
:10078000809588876E0189E0C80ED11CD7016D91D4
:100790007D010091900310919103D801ED91FC919E
:1007A0000190F081E02D6E3759F46DE7C80109958D
:1007B000D801ED91FC910190F081E02D6EE50BC028
:1007C000C8016D3749F40995D801ED91FC9101906C
:1007D000F081E02D6DE5C8010995EC14FD04B1F63A
:1007E0008091900390919103892BD1F060E08091EA
:1007F00096030E94DE0180919003909191032E96C2
:100800000FB6F894DEBF0FBECDBFDF91CF911F9121
:100810000F91FF90EF90DF90CF90BF900C94FB0270
:100820002E960FB6F894DEBF0FBECDBFDF91CF91ED
:100830001F910F91FF90EF90DF90CF90BF900895A0
:10084000089580E090E00895CF93DF9300D000D02A
:1008500000D0CDB7DEB7FC01618582852581468158
:10086000378190853B83342F4B81592F782F80E03F
:1008700090E026960FB6F894DEBF0FBECDBFDF9195
:10088000CF910895EF92FF920F931F93CF93DF9331
:100890007C01C0919A03D0919B039E012F5F3F4F33
:1008A00021388FE3380720F4C901880F991F02C04F
:1008B0008FEF9FEF0E94FA0D8C01E0919203F0916F
:1008C0009303DC0120E030E0CF012C173D073CF41E
:1008D000419151914D935D932F5F3F4FF6CFCC0FD8
:1008E000DD1FC00FD11FF982E882009711F00E942E
:1008F0008F0E109393030093920380919A0390912B
:100900009B03019690939B0380939A03DF91CF9171
:100910001F910F91FF90EF9008950E94270F1F9253
:100920000F920FB60F9211242F933F934F935F9323
:100930006F937F938F939F93AF93BF93EF93FF93A7
:100940008BEB92E00E94FE00FF91EF91BF91AF917F
:100950009F918F917F916F915F914F913F912F91D7
:100960000F900FBE0F901F9018951F920F920FB609
:100970000F9211242F938F939F93EF93FF93E09106
:10098000CB02F091CC028081E091D102F091D202B1
:1009900082FD12C090818091D4028F5F8F7320916D
:1009A000D502821751F0E091D402F0E0E554FD4FFA
:1009B000958F8093D40201C08081FF91EF919F9128
:1009C0008F912F910F900FBE0F901F9018951F922F
:1009D0000F920FB60F9211242F933F938F939F93F3
:1009E000AF93BF938091750190917601A0917701AB
:1009F000B09178013091740123E0230F2D3720F45A
:100A00000196A11DB11D05C026E8230F0296A11D68
:100A1000B11D209374018093750190937601A0938A
:100A20007701B09378018091790190917A01A0913A
:100A30007B01B0917C010196A11DB11D80937901CC
:100A400090937A01A0937B01B0937C01BF91AF9109
:100A50009F918F913F912F910F900FBE0F901F90FC
:100A600018951F920F920FB60F9211242F933F9358
:100A70004F935F936F937F938F939F93AF93BF93A6
:100A8000EF93FF93E0917201F0917301309709F4B5
:100A900051C0968DA685B785858591FF04C09C9130
:100AA000892329F447C09C91892309F043C0A38975
:100AB000B4899C918589809589238C9386899789AF
:100AC0000197F1F7608D718DA685B785558538E062
:100AD00020E0CB010197F1F7822F90E09595879563
:100AE000282F4C91452309F02068315091F7868DCD
:100AF00081FD20958091700190E001968F73992778
:100B000030917101381749F0A0917001B0E0A05DFB
:100B1000BE4F2C938093700103C0868D8160868FB9
:100B2000828D938D0197F1F7A389B4899C91858972
:100B3000892B8C93FF91EF91BF91AF919F918F91F2
:100B40007F916F915F914F913F912F910F900FBEC9
:100B50000F901F901895CF92DF92EF92FF920F9314
:100B60001F93CF93DF931092BE021092BD0298EEB6
:100B7000C92E93E0D92EE12CF12CC092BF02D09265
:100B8000C002E092C102F092C2028AE091E090932A
:100B9000BC028093BB0285EC90E09093C8028093E6
:100BA000C70284EC90E09093CA028093C90280EC63
:100BB00090E09093CC028093CB0281EC90E09093F4
:100BC000CE028093CD0282EC90E09093D00280938D
:100BD000CF0286EC90E09093D2028093D1021092E3
:100BE000D4021092D5021092D6021092D70280E061
:100BF00090EEA7E7B4E48093B5039093B603A09377
:100C0000B703B093B80380E090EEACECBFE3809301
:100C1000B1039093B203A093B303B093B40384E100
:100C200090E0909395038093940384E090E09093F8
:100C30009703809396031092990310929803109251
:100C4000AB031092AC031092AD031092AE0310925E
:100C5000B0031092AF038FE190E00E94FA0DEC0117
:100C60001B821A82CC82DD82EE82FF8282E291E0D8
:100C7000998388831F8A1E8A198E188E1B8E1A8E5E
:100C80001D8E1C8E6E8D6E7F62606E8F669561709C
:100C900081E0682784E00E94920161E084E00E9484
:100CA000DE0122EBE22E20E0F22EF7018491888B08
:100CB0000EE910E0F801849190E0880F991F8A579F
:100CC0009F4FFC01259134913A8B298B60E084E0A1
:100CD0000E94DE018E8D81FD04C061E084E00E94EF
:100CE000920184E08C87F701E490ED86F80104918D
:100CF000E02FF0E0EE0FFF1FE057FF4F859194913A
:100D00009F878E87D0939103C093900310928403A2
:100D10001092830321E0209385038CE191E090936E
:100D200082038093810340E151E550938B0340930C
:100D30008A03109286031092870310928803109200
:100D40008903109279031092780320937A03909389
:100D500077038093760342E151E5509380034093FB
:100D60007F0310927B0310927C0310927D031092FC
:100D70007E0310926E0310926D0320936F03909385
:100D80006C0380936B0344E151E5509375034093EA
:100D900074031092700310927103109272031092F8
:100DA0007303109263031092620320936403909381
:100DB00061038093600386E191E590936A038093D9
:100DC00069031092650310926603109267031092F4
:100DD000680310925C0310925D0310925E03109200
:100DE0005F038CEA95E6A8E6BCE3809358039093F2
:100DF0005903A0935A03B0935B03DF91CF911F91E6
:100E00000F91FF90EF90DF90CF900895CF93DF93F5
:100E100000D000D000D0CDB7DEB7789484B5826022
:100E200084BD84B5816084BD85B5826085BD85B58E
:100E3000816085BD80916E00816080936E0010920C
:100E40008100809181008260809381008091810087
:100E50008160809381008091800081608093800018
:100E60008091B10084608093B1008091B000816076
:100E70008093B00080917A00846080937A008091A2
:100E80007A00826080937A0080917A0081608093FA
:100E90007A0080917A00806880937A001092C10075
:100EA000E091CB02F091CC0282E08083E091C70216
:100EB000F091C8021082E091C902F091CA0283E168
:100EC00080831092D302E091CF02F091D0028EE2A3
:100ED0008083E091CD02F091CE0280818061808399
:100EE000E091CD02F091CE02808188608083E09114
:100EF000CD02F091CE02808180688083E091CD02A6
:100F0000F091CE0280818F7D808381E893E00E9402
:100F1000420486E793E00E9442048BE693E00E943D
:100F2000420480E693E00E944204E0919003F09135
:100F30009103138E128E118E108E178A168A82E4F8
:100F400090E0958F848F8485863108F04DC02FE026
:100F500030E0378B268B20E430E0318F208F27E282
:100F600030E0338F228F90916800883050F021E07C
:100F70008E3008F420E081E001C0880F2A95EAF75E
:100F800001C084E0892B809368008485883038F024
:100F90008E3040F0863148F020E030E008C02DE689
:100FA00030E005C02BE630E002C02CE630E0348BA8
:100FB000238B883030F491E001C0990F8A95EAF7CD
:100FC0000EC0282F30E08E3018F42850310902C0AE
:100FD0002E50310991E001C0990F2A95EAF7958BBF
:100FE000848D958D0197F1F7CF010E94FB02EE24CD
:100FF000E39401E0DD24D394A0909003B09091039A
:10100000D501ED91FC910084F185E02DC501099594
:10101000181619060CF08EC0D501ED91FC910284D2
:10102000F385E02DC5010995F82EBEE78B1307C0A7
:10103000D0929C0310929E0310929D033CC020917D
:101040009C032223C1F120919D0330919E03213006
:10105000310589F53C01EFE16E22772480919403FC
:10106000909195038615970509F017C3D501ED9169
:10107000FC910084F185E02DC5010995892B09F0CB
:101080000CC32091A9033091AA03121613060CF089
:101090000FC34091AB035091AC036091AD037091CD
:1010A000AE038091AF039091B0030E94240310928D
:1010B000AA031092A90380919C03882309F4A0CF6E
:1010C00080919D0390919E03FC01E457FC4FF38AAD
:1010D000019690939E0380939D030A970CF490CF02
:1010E00010929C03E0918C03F0918D03309709F4EA
:1010F00087CF8091A2036091A30370E0762F6627CB
:10110000680F711D8091A1034091A4035091A50324
:1011100090E0099575CF8BEB92E00E94C600182FE6
:101120008091BA02882369F08091BA0281111CC0B3
:101130001093B9028BEB92E00E94E800892B59F7DB
:10114000A9C21F3089F78091B9028111EDCF1092A9
:10115000B5021092B6021092B7021092B802009334
:10116000BA020093B402E0CF8091B5029091B6022A
:10117000A091B702B091B802FC01E556FD4F108373
:101180000196A11DB11D8093B5029093B602A09364
:10119000B702B093B8024997A105B10549F610927C
:1011A000BA028091B402882319F28091B20282FBC4
:1011B000FF24F0F883FF14C08091700390917103B5
:1011C000A0917203B09173030196A11DB11D80938C
:1011D000700390937103A0937203B093730315C0CF
:1011E000FF2099F080917B0390917C03A0917D0377
:1011F000B0917E030196A11DB11D80937B03909356
:101200007C03A0937D03B0937E0380919D0290E0C8
:10121000382F222740919C02242B37703093FA01FB
:101220002093F90140919E0250E09A0165E0220F5F
:10123000331F6A95E1F773E0959587957A95E1F705
:10124000822B932B97709093FC018093FB0120914C
:10125000A00230E080919F02B4E08B9FC001112476
:10126000E6E055954795EA95E1F7482B592BC901DA
:10127000982F8827990F990F482B592B5770509307
:10128000FE014093FD018091A10290E0AC015695D2
:10129000542F44275795479535952795242B352B63
:1012A0003770309300022093FF012091A20230E0BA
:1012B000A90164E0440F551F6A95E1F774E0959524
:1012C00087957A95E1F7842B952B9770909302027E
:1012D000809301028091A40290E04091A30250E02B
:1012E000440F551F220F232F221F330B242B352B86
:1012F000AC01542F4427550F242B352B37703093D6
:101300000402209303022091A50230E0A901B6E077
:10131000440F551FBA95E1F7959587959595879553
:10132000842B952B977090930602809305028091F1
:10133000A602E8E08E9FC001112475E0359527953F
:101340007A95E1F7282B392B309308022093070276
:101350004091A80250E0942F88272091A702822B69
:10136000977090930A02809309026091A90270E03D
:10137000CB01F5E0880F991FFA95E1F7A3E05595A9
:101380004795AA95E1F7482B592B577050930C02BB
:1013900040930B029091AA02292F30E0C901880FD7
:1013A000991F880F991F46E0759567954A95E1F753
:1013B000682B792B322F2227330F330F262B372B15
:1013C000377030930E0220930D022091AC0230E072
:1013D000A9015695542F4427579547959091AB02F4
:1013E000892F90E095958795842B952B97709093F6
:1013F000100280930F028091AD0290E0AC01E4E016
:10140000440F551FEA95E1F7F4E035952795FA95D5
:10141000E1F7242B352B3770309312022093110201
:101420002091AF0230E04091AE0250E0440F551FD2
:10143000880F892F881F990B842B952BA901542F76
:101440004427550F842B952B97709093140280930B
:1014500013028091B00290E0AC0176E0440F551F7A
:101460007A95E1F73595279535952795242B352BDA
:10147000377030931602209315026091B102F8E0A4
:101480006F9FB0011124F5E095958795FA95E1F7E6
:10149000682B792B7093180260931702072E000CAB
:1014A000880B990B0E94D30C4B015C0120E030E0CB
:1014B0004CE253E40E94BC0B20E030EE4CE454E4D8
:1014C0000E94290C20E030E040E85FE30E94BC0B62
:1014D00020E030E049EC52E40E945F0D0E949B0C3A
:1014E0002B013C017093DC016093DB012091B5037B
:1014F0003091B6034091B7035091B803C501B401D0
:101500000E94BC0B2091B1033091B2034091B30310
:101510005091B4030E945F0D20E030E84BEB54E49F
:101520000E94BD0B0E949B0C7093A00160939F01D1
:1015300080905C0390905D03A0905E03B0905F0389
:10154000B201052C000C880B990B25EC42162FEFED
:1015500052066CF00E94D30C2DEC3CEC4CEC5EE39C
:101560000E945F0D20E030E04AE952E40CC00E9486
:10157000D30C2DEC3CEC4CE45FE30E945F0D20E0CB
:1015800030E044EC52E40E94BD0B9B01AC01C5016C
:10159000B4010E94BC0B2091580330915903409133
:1015A0005A0350915B030E945F0D9B01AC01C50182
:1015B000B4010E94BC0B60935C0370935D03809345
:1015C0005E0390935F0360937D0170937E0180932F
:1015D0007F019093800160917D0170917E018091E7
:1015E0007F01909180010E949B0CCB01770FAA0B89
:1015F000BB0B8093650390936603A0936703B0933E
:1016000068038091990290919A02FC01EB5CFD4F76
:10161000F0820196843691052CF490939A0280937F
:10162000990204C010929A0210929902E5E3F2E046
:1016300060E070E08191882311F06F5F7F4F42E09E
:10164000E939F407B9F7072E000C880B990B0E94B3
:10165000D30C20E030E048EC52E40E94290C20E05A
:1016600030E048EC52E40E945F0D9B01AC0160E069
:1016700070E088EC92E40E94BC0B0E949B0C60938B
:101680008603709387038093880390938903109255
:10169000B4024ECD0E948801AFCC80918E03909110
:1016A0008F038615970509F406CD10929C0303CD90
:1016B00080919A0390919B03892B09F458C0409024
:1016C00098035090990380919803909199039C01FD
:1016D000220F331FE0919203F0919303E20FF31F67
:1016E0006080718001969093990380939803209174
:1016F0009A0330919B038217930724F01092990369
:1017000010929803F3011481112349F10190F081A3
:10171000E02D0190F081E02DC3010995B22FA32F98
:10172000F42FE52FCB01B983AA83FB83EC836D8370
:101730009E836D817E81161617068CF420E130E0C1
:101740004B2F5A2F6F2F7E2F0E942403D301129606
:10175000ED91FC911397309759F0099509C080914C
:101760009803909199038415950509F0ACCF10E08A
:101770001E2510939C039FCC5058BB27AA270E947C
:10178000D40B0C94250D0E94170D38F00E941E0DED
:1017900020F039F49F3F19F426F40C94140D0EF444
:1017A000E095E7FB0C940E0DE92F0E94360D58F3DF
:1017B000BA17620773078407950720F079F4A6F536
:1017C0000C94580D0EF4E0950B2EBA2FA02D0B01A2
:1017D000B90190010C01CA01A0011124FF27591B76
:1017E00099F0593F50F4503E68F11A16F040A22F7C
:1017F000232F342F4427585FF3CF469537952795ED
:10180000A795F0405395C9F77EF41F16BA0B620BEB
:10181000730B840BBAF09150A1F0FF0FBB1F661F32
:10182000771F881FC2F70EC0BA0F621F731F841F75
:1018300048F4879577956795B795F7959E3F08F09B
:10184000B0CF9395880F08F09927EE0F979587955D
:1018500008950E943D0C0C94250D0E941E0D58F019
:101860000E94170D40F029F45F3F29F00C940E0DF3
:1018700051110C94590D0C94140D0E94360D68F3FF
:101880009923B1F3552391F3951B550BBB27AA2739
:1018900062177307840738F09F5F5F4F220F331F73
:1018A000441FAA1FA9F335D00E2E3AF0E0E832D03B
:1018B00091505040E695001CCAF72BD0FE2F29D03E
:1018C000660F771F881FBB1F261737074807AB0710
:1018D000B0E809F0BB0B802DBF01FF2793585F4F85
:1018E0003AF09E3F510578F00C940E0D0C94590D72
:1018F0005F3FE4F3983ED4F3869577956795B79567
:10190000F7959F5FC9F7880F911D9695879597F971
:101910000895E1E0660F771F881FBB1F62177307EA
:101920008407BA0720F0621B730B840BBA0BEE1FFF
:1019300088F7E09508950E94A20C6894B1110C9468
:10194000590D08950E943E0D88F09F5798F0B92FC9
:101950009927B751B0F0E1F0660F771F881F991FE4
:101960001AF0BA95C9F714C0B13091F00E94580D21
:10197000B1E008950C94580D672F782F8827B85F31
:1019800039F0B93FCCF3869577956795B395D9F73C
:101990003EF490958095709561957F4F8F4F9F4F46
:1019A0000895E89409C097FB3EF490958095709552
:1019B00061957F4F8F4F9F4F9923A9F0F92F96E99B
:1019C000BB279395F695879577956795B795F11110
:1019D000F8CFFAF4BB0F11F460FF1BC06F5F7F4FAD
:1019E0008F4F9F4F16C0882311F096E911C07723BF
:1019F00021F09EE8872F762F05C0662371F096E8C8
:101A0000862F70E060E02AF09A95660F771F881F96
:101A1000DAF7880F9695879597F9089597F99F6754
:101A200080E870E060E008959FEF80EC0895002466
:101A30000A941616170618060906089500240A9433
:101A400012161306140605060895092E0394000CB9
:101A500011F4882352F0BB0F40F4BF2B11F460FF48
:101A600004C06F5F7F4F8F4F9F4F089557FD905871
:101A7000440F551F59F05F3F71F04795880F97FB52
:101A8000991F61F09F3F79F087950895121613060C
:101A90001406551FF2CF4695F1DF08C0161617063B
:101AA0001806991FF1CF8695710561050894089570
:101AB000E894BB2766277727CB0197F908950E9402
:101AC000720D0C94250D0E94170D38F00E941E0D0A
:101AD00020F0952311F00C940E0D0C94140D11248C
:101AE0000C94590D0E94360D70F3959FC1F3950F1C
:101AF00050E0551F629FF001729FBB27F00DB11D92
:101B0000639FAA27F00DB11DAA1F649F6627B00D21
:101B1000A11D661F829F2227B00DA11D621F739F0A
:101B2000B00DA11D621F839FA00D611D221F749F18
:101B30003327A00D611D231F849F600D211D822F5F
:101B4000762F6A2F11249F5750409AF0F1F0882386
:101B50004AF0EE0FFF1FBB1F661F771F881F9150B3
:101B60005040A9F79E3F510580F00C940E0D0C9447
:101B7000590D5F3FE4F3983ED4F3869577956795CA
:101B8000B795F795E7959F5FC1F7FE2B880F911DDD
:101B90009695879597F9089597FB072E16F400946C
:101BA00007D077FD09D00E94E00D07FC05D03EF478
:101BB000909581959F4F0895709561957F4F0895F9
:101BC000AA1BBB1B51E107C0AA1FBB1FA617B70763
:101BD00010F0A61BB70B881F991F5A95A9F780957F
:101BE0009095BC01CD010895EE0FFF1F0590F49173
:101BF000E02D0994CF93DF938230910510F482E0B9
:101C000090E0E091BB03F091BC0320E030E0C0E045
:101C1000D0E0309711F14081518148175907C0F049
:101C20004817590761F482819381209719F09B83AB
:101C30008A832BC09093BC038093BB0326C02115DD
:101C4000310519F04217530718F49A01BE01DF015C
:101C5000EF010280F381E02DDCCF2115310509F180
:101C6000281B390B2430310590F412968D919C91EC
:101C700013976115710521F0FB019383828304C0E2
:101C80009093BC038093BB03FD01329644C0FD01D9
:101C9000E20FF31F81939193225031092D933C93CE
:101CA0003AC02091B9033091BA03232B41F420911B
:101CB0000201309103013093BA032093B9032091BC
:101CC0000001309101012115310541F42DB73EB7D6
:101CD0004091040150910501241B350BE091B9039B
:101CE000F091BA03E217F307A0F42E1B3F0B28175D
:101CF000390778F0AC014E5F5F4F2417350748F085
:101D00004E0F5F1F5093BA034093B9038193919391
:101D100002C0E0E0F0E0CF01DF91CF9108950F9392
:101D20001F93CF93DF93009709F48CC0FC01329787
:101D3000138212820091BB031091BC03011511059F
:101D400081F420813181820F931F2091B90330915A
:101D5000BA032817390779F5F093BA03E093B9036A
:101D600071C0D80140E050E0AE17BF0750F41296A2
:101D70002D913C911397AD012115310509F1D90140
:101D8000F3CF9D01DA013383228360817181860F55
:101D9000971F8217930769F4EC0128813981260F78
:101DA000371F2E5F3F4F318320838A819B8193832E
:101DB0008283452B29F4F093BC03E093BB0342C01C
:101DC0001396FC93EE931297ED01499159919E0160
:101DD000240F351FE217F30771F480819181840F7E
:101DE000951F029611969C938E93828193811396F0
:101DF0009C938E931297E0E0F0E0D80112968D91BB
:101E00009C911397009719F0F8018C01F6CF8D91F2
:101E10009C9198012E5F3F4F820F931F2091B90331
:101E20003091BA032817390769F4309729F41092D2
:101E3000BC031092BB0302C0138212821093BA0338
:101E40000093B903DF91CF911F910F91089581E025
:0C1E500090E0F8940C942C0FF894FFCF55
:101E5C000000BD038000000000001F018C00B700D3
:101E6C006601E800C600DA0000000000240400004F
:101E7C00000058028C0021045702AC02C4023F023D
:00000001FF
