:100000000C9462000C948A000C948A000C943105C4
:100010000C9431050C9431050C948A000C948A00E0
:100020000C948A000C948A000C948A000C948A0028
:100030000C948A000C948A000C948A000C948A0018
:100040000C94E7040C948A000C94B5040C948F046F
:100050000C948A000C948A000C948A000C948A00F8
:100060000C948A000C948A000000000024002700F1
:100070002A0000000008000201000003040700003D
:1000800000000000000000000000250028002B00F8
:1000900000000000230026002900040404040404D6
:1000A0000404020202020202030303030303010227
:1000B00004081020408001020408102001020408F6
:1000C0001020AB0511241FBECFEFD8E0DEBFCDBF9F
:1000D00011E0A0E0B1E0E0E3FAE102C005900D928A
:1000E000A033B107D9F722E0A0E3B1E001C01D922F
:1000F000AA3FB207E1F710E0C2E6D0E004C02197C2
:10010000FE010E94DE0BC136D107C9F70E94EE0640
:100110000C94160D0C940000CF92DF92EF92FF9298
:100120000F931F93CF93DF936C017A018B01C0E093
:10013000D0E0CE15DF0589F0D8016D918D01D60193
:10014000ED91FC910190F081E02DC6010995892B7C
:1001500011F47E0102C02196ECCFC701DF91CF914F
:100160001F910F91FF90EF90DF90CF900895FC01C9
:10017000538D448D252F30E0842F90E0821B930B0C
:10018000541710F0CF96089501970895FC01918DB2
:10019000828D981761F0828DDF01A80FB11D5D96E9
:1001A0008C91928D9F5F9F73928F90E008958FEF57
:1001B0009FEF0895FC01918D828D981731F0828D0B
:1001C000E80FF11D858D90E008958FEF9FEF089562
:1001D000FC01918D228D892F90E0805C9F4F821BC6
:1001E00091098F739927089583E092E00E94E800B7
:1001F00021E0892B09F420E0822F0895FC01848DF1
:10020000DF01A80FB11DA35ABF4F2C91848D90E040
:1002100001968F739927848FA689B7892C93A0891B
:10022000B1898C9180648C93938D848D981306C0D2
:100230000288F389E02D80818F7D80830895EF927D
:10024000FF920F931F93CF93DF93EC0181E0888F90
:100250009B8D8C8D981305C0E889F989808185FD77
:1002600024C0F62E0B8D10E00F5F1F4F0F73112768
:10027000E02E8C8DE8120CC00FB607FCFACFE8898F
:10028000F989808185FFF5CFCE010E94FE00F1CF74
:100290008B8DFE01E80FF11DE35AFF4FF0820B8FAB
:1002A000EA89FB898081806207C0EE89FF896083CB
:1002B000E889F98980818064808381E090E0DF9122
:1002C000CF911F910F91FF90EF900895CF93DF93FF
:1002D000EC01888D8823C9F0EA89FB89808185FD3E
:1002E00005C0A889B9898C9186FD0FC00FB607FC9F
:1002F000F5CF808185FFF2CFA889B9898C9185FFE0
:10030000EDCFCE010E94FE00E7CFDF91CF9108959F
:1003100080E090E0892B29F00E94F40081110C9478
:100320000000089590E0FC01EE58FF4F3491FC016D
:10033000E255FF4F2491FC01E656FF4FE491EE2376
:1003400009F43BC0332339F1333091F038F43130C4
:10035000A9F0323001F584B58F7D12C0373091F0AD
:100360003830A1F03430B9F4809180008F7D03C023
:10037000809180008F77809380000DC084B58F7747
:1003800084BD09C08091B0008F7703C08091B00018
:100390008F7D8093B000F0E0EE0FFF1FEA57FF4F14
:1003A000A591B4918FB7F894EC91611103C0209599
:1003B0002E2301C02E2B2C938FBF0895CF93DF9354
:1003C00090E0FC01E255FF4F2491FC01E656FF4FFF
:1003D0008491882361F190E0880F991FFC01E8590E
:1003E000FF4FC591D491FC01EA57FF4FA591B491FD
:1003F000611109C09FB7F894888120958223888372
:10040000EC912E230BC0623061F49FB7F8943881D1
:10041000822F809583238883EC912E2B2C939FBF72
:1004200006C08FB7F894E8812E2B28838FBFDF9109
:10043000CF9108953FB7F8948091790190917A0116
:10044000A0917B01B0917C0126B5A89B05C02F3FF0
:1004500019F00196A11DB11D3FBFBA2FA92F982FEA
:100460008827820F911DA11DB11DBC01CD0142E065
:10047000660F771F881F991F4A95D1F7089520911D
:100480007201309173012817390771F4909171014D
:1004900080917001981741F0E0917101F0E0E05D0A
:1004A000FE4F808190E008958FEF9FEF08950895AB
:1004B0001F93CF93DF93DC015C962D913C915D9768
:1004C0002115310539F481E090E013969C938E93C9
:1004D00012973DC05196ED91FC91529750969C9188
:1004E0005097892F80951FB75E964C915E9741FB80
:1004F000772770F941FD6095F8944081772311F0DA
:10050000492B01C048234083E9012197F1F748E0D6
:10051000508160FF02C0592B01C058235083E9016C
:100520002197F1F76695415099F7772321F0908153
:100530008923808303C08081982B90831FBF5C96A2
:100540008D919C915D970197F1F721E030E0C90111
:10055000DF91CF911F910895209172013091730125
:100560002817390771F4809170012091710190E092
:10057000805C9F4F821B910960E470E00E94B60B83
:10058000089580E090E00895209172013091730108
:1005900028173907B9F4909171018091700198176B
:1005A00089F0E0917101F0E0E05DFE4F80812091E3
:1005B000710130E02F5F3F4F2F733327209371017C
:1005C00090E008958FEF9FEF0895E0917201F09110
:1005D0007301E817F90769F4A389B4899C918589A7
:1005E000809589238C93109273011092720181E09F
:1005F000089580E00895CF93DF93EC018A8D9B8D61
:10060000892BF1F080917201909173018C179D07F5
:10061000B9F0009711F00E94E5028E8D8E7F8E8FCB
:100620001092700110927101D0937301C093720106
:10063000EB89FC8990818D89892B808381E001C0C1
:1006400080E0DF91CF910895BF92CF92DF92EF9239
:10065000FF920F931F93CF93DF93CDB7DEB72E9703
:100660000FB6F894DEBF0FBECDBF49875A876B87A0
:100670007C878D879E87B22E182F092F8091CD02FF
:100680009091CE020097B1F439852A859B858C859F
:10069000B9821A830B833C832D839E838F83CE0183
:1006A00001967C019E01285F3F4FFC0180E090E0B5
:1006B000DC0119C00E94E50261E08091D3020E9432
:1006C000DE010E941A026B017C010E941A02AB013A
:1006D000BC014C195D096E097F09483E5340610514
:1006E000710590F6F2CF4191840F911DA11DB11DAE
:1006F000E217F307C1F78115E7E09E07A105B105F1
:1007000024F00796A11DB11D3BC08115F6E09F079F
:10071000A105B10524F00696A11DB11D31C08115BA
:1007200025E09207A105B10524F00596A11DB11D94
:1007300027C08115E4E09E07A105B10524F00496C9
:10074000A11DB11D1DC08115F3E09F07A105B105D5
:1007500024F00396A11DB11D13C0811522E092075C
:10076000A105B10524F00296A11DB11D09C08F3F5E
:100770009105A105B10521F01CF00196A11DB11D47
:10078000809588876E0189E0C80ED11CD7016D91D4
:100790007D010091CD021091CE02D801ED91FC9126
:1007A0000190F081E02D6E3759F46DE7C80109958D
:1007B000D801ED91FC910190F081E02D6EE50BC028
:1007C000C8016D3749F40995D801ED91FC9101906C
:1007D000F081E02D6DE5C8010995EC14FD04B1F63A
:1007E0008091CD029091CE02892BD1F060E0809172
:1007F000D3020E94DE018091CD029091CE022E960E
:100800000FB6F894DEBF0FBECDBFDF91CF911F9121
:100810000F91FF90EF90DF90CF90BF900C94FB0270
:100820002E960FB6F894DEBF0FBECDBFDF91CF91ED
:100830001F910F91FF90EF90DF90CF90BF900895A0
:10084000089580E090E00895CF93DF9300D000D02A
:1008500000D0CDB7DEB7FC01618582852581468158
:10086000378190853B83342F4B81592F782F80E03F
:1008700090E026960FB6F894DEBF0FBECDBFDF9195
:10088000CF910895EF92FF920F931F93CF93DF9331
:100890007C01C091D702D091D8029E012F5F3F4FBB
:1008A00021388FE3380720F4C901880F991F02C04F
:1008B0008FEF9FEF0E94E40B8C01E091CF02F0914B
:1008C000D002DC0120E030E0CF012C173D073CF4E2
:1008D000419151914D935D932F5F3F4FF6CFCC0FD8
:1008E000DD1FC00FD11FF982E882009711F00E942E
:1008F000790C1093D0020093CF028091D70290918F
:10090000D80201969093D8028093D702DF91CF91BD
:100910001F910F91FF90EF9008950E94110D1F926B
:100920000F920FB60F9211242F933F934F935F9323
:100930006F937F938F939F93AF93BF93EF93FF93A7
:1009400083E092E00E94FE00FF91EF91BF91AF9192
:100950009F918F917F916F915F914F913F912F91D7
:100960000F900FBE0F901F9018951F920F920FB609
:100970000F9211242F938F939F93EF93FF93E09106
:100980001302F09114028081E0911902F0911A0291
:1009900082FD12C0908180911C028F5F8F73209125
:1009A0001D02821751F0E0911C02F0E0ED5FFD4F57
:1009B000958F80931C0201C08081FF91EF919F91E0
:1009C0008F912F910F900FBE0F901F9018951F922F
:1009D0000F920FB60F9211242F933F938F939F93F3
:1009E000AF93BF938091750190917601A0917701AB
:1009F000B09178013091740123E0230F2D3720F45A
:100A00000196A11DB11D05C026E8230F0296A11D68
:100A1000B11D209374018093750190937601A0938A
:100A20007701B09378018091790190917A01A0913A
:100A30007B01B0917C010196A11DB11D80937901CC
:100A400090937A01A0937B01B0937C01BF91AF9109
:100A50009F918F913F912F910F900FBE0F901F90FC
:100A600018951F920F920FB60F9211242F933F9358
:100A70004F935F936F937F938F939F93AF93BF93A6
:100A8000EF93FF93E0917201F0917301309709F4B5
:100A900051C0968DA685B785858591FF04C09C9130
:100AA000892329F447C09C91892309F043C0A38975
:100AB000B4899C918589809589238C9386899789AF
:100AC0000197F1F7608D718DA685B785558538E062
:100AD00020E0CB010197F1F7822F90E09595879563
:100AE000282F4C91452309F02068315091F7868DCD
:100AF00081FD20958091700190E001968F73992778
:100B000030917101381749F0A0917001B0E0A05DFB
:100B1000BE4F2C938093700103C0868D8160868FB9
:100B2000828D938D0197F1F7A389B4899C91858972
:100B3000892B8C93FF91EF91BF91AF919F918F91F2
:100B40007F916F915F914F913F912F910F900FBEC9
:100B50000F901F901895CF92DF92EF92FF920F9314
:100B60001F93CF93DF93109206021092050298EE26
:100B7000C92E93E0D92EE12CF12CC0920702D0921D
:100B80000802E0920902F0920A028AE091E0909352
:100B900004028093030285EC90E09093100280930E
:100BA0000F0284EC90E0909312028093110280EC8B
:100BB00090E0909314028093130281EC90E0909364
:100BC00016028093150282EC90E0909318028093B5
:100BD000170286EC90E090931A028093190210920B
:100BE0001C0210921D0210921E0210921F0280E041
:100BF00090EEA7E7B4E48093F2029093F302A093FF
:100C0000F402B093F50280E090EEACECBFE3809389
:100C1000EE029093EF02A093F002B093F10282E112
:100C200090E09093D2028093D10284E090E0909380
:100C3000D4028093D3021092D6021092D502109261
:100C4000E8021092E9021092EA021092EB0210926E
:100C5000ED021092EC028FE190E00E94E40BEC01B7
:100C60001B821A82CC82DD82EE82FF8282E291E0D8
:100C7000998388831F8A1E8A198E188E1B8E1A8E5E
:100C80001D8E1C8E6E8D6E7F62606E8F669561709C
:100C900081E0682784E00E94920161E084E00E9484
:100CA000DE0122EBE22E20E0F22EF7018491888B08
:100CB0000EE910E0F801849190E0880F991F8A579F
:100CC0009F4FFC01259134913A8B298B60E084E0A1
:100CD0000E94DE018E8D81FD04C061E084E00E94EF
:100CE000920184E08C87F701E490ED86F80104918D
:100CF000E02FF0E0EE0FFF1FE057FF4F859194913A
:100D00009F878E87D093CE02C093CD021092C102EE
:100D10001092C00221E02093C2028CE191E09093F6
:100D2000BF028093BE0240E051E55093C802409359
:100D3000C7021092C3021092C4021092C502109210
:100D4000C6021092B6021092B5022093B702909399
:100D5000B4028093B30242E051E55093BD02409348
:100D6000BC021092B8021092B9021092BA0210920C
:100D7000BB021092AB021092AA022093AC02909395
:100D8000A9028093A80284E091E59093B202809337
:100D9000B1021092AD021092AE021092AF02109208
:100DA000B0021092A4021092A5021092A602109214
:100DB000A7028CEA95E6A8E6BCE38093A002909394
:100DC000A102A093A202B093A302DF91CF911F9141
:100DD0000F91FF90EF90DF90CF900895CF93DF9326
:100DE00000D000D000D0CDB7DEB7789484B5826053
:100DF00084BD84B5816084BD85B5826085BD85B5BF
:100E0000816085BD80916E00816080936E0010923C
:100E100081008091810082608093810080918100B7
:100E20008160809381008091800081608093800048
:100E30008091B10084608093B1008091B0008160A6
:100E40008093B00080917A00846080937A008091D2
:100E50007A00826080937A0080917A00816080932A
:100E60007A0080917A00806880937A001092C100A5
:100E7000E0911302F091140282E08083E0910F026E
:100E8000F09110021082E0911102F091120283E1C0
:100E9000808310921B02E0911702F09118028EE2FB
:100EA0008083E0911502F091160280818061808339
:100EB000E0911502F0911602808188608083E091B4
:100EC0001502F0911602808180688083E0911502FE
:100ED000F091160280818F7D80838EEB92E00E94DC
:100EE000420483EB92E00E94420488EA92E00E946E
:100EF0004204E091CD02F091CE02138E128E118E3B
:100F0000108E178A168A82E490E0958F848F8485EC
:100F1000863108F04DC02FE030E0378B268B20E47F
:100F200030E0318F208F27E230E0338F228F909195
:100F30006800883050F021E08E3008F420E081E035
:100F400001C0880F2A95EAF701C084E0892B8093BD
:100F500068008485883038F08E3040F0863148F063
:100F600020E030E008C02DE630E005C02BE630E0A0
:100F700002C02CE630E0348B238B883030F491E0D3
:100F800001C0990F8A95EAF70EC0282F30E08E3005
:100F900018F42850310902C02E50310991E001C0E7
:100FA000990F2A95EAF7958B848D958D0197F1F726
:100FB000CF010E94FB02CC24C394DD24D394BB2434
:100FC000B3940091CD021091CE02D801ED91FC9125
:100FD0000084F185E02DC8010995181619060CF05A
:100FE0008EC0D801ED91FC910284F385E02DC801FB
:100FF0000995A82EBEE78B1307C0B092D9021092B4
:10100000DB021092DA023CC02091D9022223C1F106
:101010002091DA023091DB022130310589F57C0123
:10102000EFE1EE22FF248091D1029091D2028E1541
:101030009F0509F01CC1D801ED91FC910084F18558
:10104000E02DC8010995892B09F011C12091E60214
:101050003091E702121613060CF014C14091E80219
:101060005091E9026091EA027091EB028091EC02EA
:101070009091ED020E9424031092E7021092E60282
:101080008091D902882309F4A0CF8091DA0290914F
:10109000DB02FC01E753FD4FA38A01969093DB022C
:1010A0008093DA020A970CF490CF1092D902E09163
:1010B000C902F091CA02309709F487CF8091DF020C
:1010C0006091E00270E0762F6627680F711D8091B5
:1010D000DE024091E1025091E20290E0099575CF65
:1010E00083E092E00E94C600182F809102028823BC
:1010F00069F08091020281111CC01093010283E00B
:1011000092E00E94E800892B59F7AEC01F3089F7A2
:10111000809101028111EDCF1092FD011092FE012C
:101120001092FF0110920002D0920202D092FC01B4
:10113000E0CF8091FD019091FE01A091FF01B0915F
:101140000002FC01ED51FE4F10830196A11DB11D5F
:101150008093FD019093FE01A093FF01B0930002E4
:101160004997A105B10549F6109202028091FC0150
:10117000882319F28091FA0182FB442740F983FF0A
:1011800014C08091AD029091AE02A091AF02B091D7
:10119000B0020196A11DB11D8093AD029093AE02E5
:1011A000A093AF02B093B00215C0442399F0809190
:1011B000B8029091B902A091BA02B091BB02019617
:1011C000A11DB11D8093B8029093B902A093BA02F9
:1011D000B093BB022091E1013091E201F901E358A3
:1011E000FE4F40832F5F3F4F243631052CF4309360
:1011F000E2012093E10104C01092E2011092E101AA
:10120000EDE7F1E060E070E08191882311F06F5F1D
:101210007F4FB1E0E13EFB07B9F7072E000C880BCA
:10122000990B0E94BD0A20E030E048EC52E40E9495
:10123000130A20E030E048EC52E40E94490B9B0185
:10124000AC0160E070E088EC92E40E94A6090E9484
:10125000850A6093C3027093C4028093C502909381
:10126000C6021092FC0149CF0E948801AACE80914B
:10127000CB029091CC028E159F0509F401CF1092FC
:10128000D902FECE8091D7029091D802892B09F421
:1012900058C06090D5027090D6028091D50290918E
:1012A000D6029C01220F331FE091CF02F091D002B1
:1012B000E20FF31F8080918001969093D602809375
:1012C000D5022091D7023091D8028217930724F0DB
:1012D0001092D6021092D502F401F480FF2049F159
:1012E0000190F081E02D0190F081E02DC40109957D
:1012F000B22FA32FF42FE52FCB01B983AA83FB8351
:10130000EC836D839E836D817E81161617068CF4A7
:1013100020E130E04B2F5A2F6F2F7E2F0E942403A5
:10132000D4011296ED91FC911397309759F00995DD
:1013300009C08091D5029091D6028615970509F0D3
:10134000ACCFF12CFC24F092D9029ACE5058BB2796
:10135000AA270E94BE090C940F0B0E94010B38F0C3
:101360000E94080B20F039F49F3F19F426F40C94E6
:10137000FE0A0EF4E095E7FB0C94F80AE92F0E94B0
:10138000200B58F3BA17620773078407950720F0FC
:1013900079F4A6F50C94420B0EF4E0950B2EBA2FBF
:1013A000A02D0B01B90190010C01CA01A00111246B
:1013B000FF27591B99F0593F50F4503E68F11A1617
:1013C000F040A22F232F342F4427585FF3CF4695A8
:1013D00037952795A795F0405395C9F77EF41F16CA
:1013E000BA0B620B730B840BBAF09150A1F0FF0F94
:1013F000BB1F661F771F881FC2F70EC0BA0F621F80
:10140000731F841F48F4879577956795B795F7956F
:101410009E3F08F0B0CF9395880F08F09927EE0F04
:101420009795879508950E94270A0C940F0B0E94A8
:10143000080B58F00E94010B40F029F45F3F29F09F
:101440000C94F80A51110C94430B0C94FE0A0E9460
:10145000200B68F39923B1F3552391F3951B550B9A
:10146000BB27AA2762177307840738F09F5F5F4F77
:10147000220F331F441FAA1FA9F335D00E2E3AF0B6
:10148000E0E832D091505040E695001CCAF72BD0CE
:10149000FE2F29D0660F771F881FBB1F261737071F
:1014A0004807AB07B0E809F0BB0B802DBF01FF2751
:1014B00093585F4F3AF09E3F510578F00C94F80A2C
:1014C0000C94430B5F3FE4F3983ED4F386957795F5
:1014D0006795B795F7959F5FC9F7880F911D96950A
:1014E000879597F90895E1E0660F771F881FBB1F66
:1014F000621773078407BA0720F0621B730B840B13
:10150000BA0BEE1F88F7E09508950E948C0A689444
:10151000B1110C94430B08950E94280B88F09F573B
:1015200098F0B92F9927B751B0F0E1F0660F771F07
:10153000881F991F1AF0BA95C9F714C0B13091F0FD
:101540000E94420BB1E008950C94420B672F782F54
:101550008827B85F39F0B93FCCF3869577956795C2
:10156000B395D9F73EF490958095709561957F4F2E
:101570008F4F9F4F0895E89409C097FB3EF49095D4
:101580008095709561957F4F8F4F9F4F9923A9F05C
:10159000F92F96E9BB279395F695879577956795EB
:1015A000B795F111F8CFFAF4BB0F11F460FF1BC02F
:1015B0006F5F7F4F8F4F9F4F16C0882311F096E9C2
:1015C00011C0772321F09EE8872F762F05C0662370
:1015D00071F096E8862F70E060E02AF09A95660F29
:1015E000771F881FDAF7880F9695879597F90895E2
:1015F00097F99F6780E870E060E008959FEF80ECC6
:10160000089500240A941616170618060906089568
:1016100000240A9412161306140605060895092ECE
:101620000394000C11F4882352F0BB0F40F4BF2B3D
:1016300011F460FF04C06F5F7F4F8F4F9F4F08957D
:1016400057FD9058440F551F59F05F3F71F0479573
:10165000880F97FB991F61F09F3F79F08795089558
:10166000121613061406551FF2CF4695F1DF08C077
:10167000161617061806991FF1CF86957105610594
:1016800008940895E894BB2766277727CB0197F93C
:1016900008950E945C0B0C940F0B0E94010B38F014
:1016A0000E94080B20F0952311F00C94F80A0C947A
:1016B000FE0A11240C94430B0E94200B70F3959F9B
:1016C000C1F3950F50E0551F629FF001729FBB2739
:1016D000F00DB11D639FAA27F00DB11DAA1F649FD5
:1016E0006627B00DA11D661F829F2227B00DA11D88
:1016F000621F739FB00DA11D621F839FA00D611D0E
:10170000221F749F3327A00D611D231F849F600D2E
:10171000211D822F762F6A2F11249F5750409AF057
:10172000F1F088234AF0EE0FFF1FBB1F661F771FE3
:10173000881F91505040A9F79E3F510580F00C94AE
:10174000F80A0C94430B5F3FE4F3983ED4F386957C
:1017500077956795B795F795E7959F5FC1F7FE2B4E
:10176000880F911D9695879597F9089597FB072EF9
:1017700016F4009407D077FD09D00E94CA0B07FC2D
:1017800005D03EF4909581959F4F08957095619591
:101790007F4F0895AA1BBB1B51E107C0AA1FBB1FA7
:1017A000A617B70710F0A61BB70B881F991F5A95ED
:1017B000A9F780959095BC01CD010895EE0FFF1F0C
:1017C0000590F491E02D0994CF93DF938230910539
:1017D00010F482E090E0E091F802F091F90220E04C
:1017E00030E0C0E0D0E0309711F1408151814817DE
:1017F0005907C0F04817590761F4828193812097F7
:1018000019F09B838A832BC09093F9028093F8028E
:1018100026C02115310519F04217530718F49A0113
:10182000BE01DF01EF010280F381E02DDCCF211545
:10183000310509F1281B390B2430310590F412963B
:101840008D919C9113976115710521F0FB01938394
:10185000828304C09093F9028093F802FD013296CE
:1018600044C0FD01E20FF31F81939193225031098F
:101870002D933C933AC02091F6023091F702232B2E
:1018800041F420910201309103013093F70220933B
:10189000F60220910001309101012115310541F43A
:1018A0002DB73EB74091040150910501241B350B23
:1018B000E091F602F091F702E217F307A0F42E1B75
:1018C0003F0B2817390778F0AC014E5F5F4F2417A4
:1018D000350748F04E0F5F1F5093F7024093F60212
:1018E0008193919302C0E0E0F0E0CF01DF91CF91CE
:1018F00008950F931F93CF93DF93009709F48CC043
:10190000FC013297138212820091F8021091F902C1
:101910000115110581F420813181820F931F2091DF
:10192000F6023091F7022817390779F5F093F7029C
:10193000E093F60271C0D80140E050E0AE17BF0757
:1019400050F412962D913C911397AD01211531055C
:1019500009F1D901F3CF9D01DA013383228360813C
:101960007181860F971F8217930769F4EC01288114
:101970003981260F371F2E5F3F4F318320838A81A5
:101980009B8193838283452B29F4F093F902E093A2
:10199000F80242C01396FC93EE931297ED01499121
:1019A00059919E01240F351FE217F30771F48081CE
:1019B0009181840F951F029611969C938E9382813C
:1019C000938113969C938E931297E0E0F0E0D801F8
:1019D00012968D919C911397009719F0F8018C0144
:1019E000F6CF8D919C9198012E5F3F4F820F931FF0
:1019F0002091F6023091F7022817390769F43097E1
:101A000029F41092F9021092F80202C01382128295
:101A10001093F7020093F602DF91CF911F910F917F
:101A2000089581E090E0F8940C94160DF894FFCF9F
:101A30000000FA028000000000001F018C00B700C7
:101A40006601E800C600DA0000000000240400007F
:101A5000000058028C0021045702AC02C4023F026D
:00000001FF
